{
  "contractName": "Auction",
  "abi": [
    {
      "constant": true,
      "inputs": [],
      "name": "BiddingTimeRemaining",
      "outputs": [
        {
          "internalType": "uint256",
          "name": "",
          "type": "uint256"
        }
      ],
      "payable": false,
      "stateMutability": "view",
      "type": "function"
    },
    {
      "constant": true,
      "inputs": [],
      "name": "RevealingTimeRemaining",
      "outputs": [
        {
          "internalType": "uint256",
          "name": "",
          "type": "uint256"
        }
      ],
      "payable": false,
      "stateMutability": "view",
      "type": "function"
    },
    {
      "constant": false,
      "inputs": [
        {
          "internalType": "bytes32",
          "name": "HashValue",
          "type": "bytes32"
        }
      ],
      "name": "PlaceBid",
      "outputs": [],
      "payable": false,
      "stateMutability": "nonpayable",
      "type": "function"
    },
    {
      "constant": false,
      "inputs": [
        {
          "internalType": "uint256",
          "name": "BidAmount",
          "type": "uint256"
        },
        {
          "internalType": "uint256",
          "name": "Nonce",
          "type": "uint256"
        }
      ],
      "name": "RevealBid",
      "outputs": [],
      "payable": false,
      "stateMutability": "nonpayable",
      "type": "function"
    },
    {
      "constant": false,
      "inputs": [
        {
          "internalType": "address payable",
          "name": "receiver",
          "type": "address"
        },
        {
          "internalType": "uint256",
          "name": "amount",
          "type": "uint256"
        }
      ],
      "name": "TransferEther",
      "outputs": [],
      "payable": true,
      "stateMutability": "payable",
      "type": "function"
    }
  ],
  "bytecode": "0x608060405234801561001057600080fd5b506107de806100206000396000f3fe60806040526004361061004a5760003560e01c806313744e3c1461004f57806350c522dc1461007a57806374ccdbe0146100b5578063b3b1161e146100fa578063c2b44dc114610148575b600080fd5b34801561005b57600080fd5b50610064610173565b6040518082815260200191505060405180910390f35b34801561008657600080fd5b506100b36004803603602081101561009d57600080fd5b810190808035906020019092919050505061026e565b005b3480156100c157600080fd5b506100f8600480360360408110156100d857600080fd5b81019080803590602001909291908035906020019092919050505061032c565b005b6101466004803603604081101561011057600080fd5b81019080803573ffffffffffffffffffffffffffffffffffffffff16906020019092919080359060200190929190505050610619565b005b34801561015457600080fd5b5061015d610726565b6040518082815260200191505060405180910390f35b60006001544210156101ed576040517f08c379a000000000000000000000000000000000000000000000000000000000815260040180806020018281038252601e8152602001807f52657665616c696e672054696d6520686173206e6f742053746172746564000081525060200191505060405180910390fd5b6002544210610264576040517f08c379a00000000000000000000000000000000000000000000000000000000081526004018080602001828103825260188152602001807f52657665616c696e672054696d652068617320456e646564000000000000000081525060200191505060405180910390fd5b4260025403905090565b60015442106102e5576040517f08c379a00000000000000000000000000000000000000000000000000000000081526004018080602001828103825260168152602001807f42696464696e672054696d652068617320456e6465640000000000000000000081525060200191505060405180910390fd5b80600960003373ffffffffffffffffffffffffffffffffffffffff1673ffffffffffffffffffffffffffffffffffffffff1681526020019081526020016000208190555050565b6001544210156103a4576040517f08c379a000000000000000000000000000000000000000000000000000000000815260040180806020018281038252601e8152602001807f52657665616c696e672054696d6520686173206e6f742053746172746564000081525060200191505060405180910390fd5b600254421061041b576040517f08c379a00000000000000000000000000000000000000000000000000000000081526004018080602001828103825260188152602001807f52657665616c696e672054696d652068617320456e646564000000000000000081525060200191505060405180910390fd5b600960003373ffffffffffffffffffffffffffffffffffffffff1673ffffffffffffffffffffffffffffffffffffffff168152602001908152602001600020548282604051602001808381526020018281526020019250505060405160208183030381529060405280519060200120146104fd576040517f08c379a00000000000000000000000000000000000000000000000000000000081526004018080602001828103825260178152602001807f486173682056616c75657320446f6e2774204d6174636800000000000000000081525060200191505060405180910390fd5b600860003373ffffffffffffffffffffffffffffffffffffffff1673ffffffffffffffffffffffffffffffffffffffff16815260200190815260200160002060009054906101000a900460ff16156105bd576040517f08c379a000000000000000000000000000000000000000000000000000000000815260040180806020018281038252601d8152602001807f4269642068617320416c7265616479204265656e2052657665616c656400000081525060200191505060405180910390fd5b6001600860003373ffffffffffffffffffffffffffffffffffffffff1673ffffffffffffffffffffffffffffffffffffffff16815260200190815260200160002060006101000a81548160ff0219169083151502179055505050565b6000809054906101000a900473ffffffffffffffffffffffffffffffffffffffff1673ffffffffffffffffffffffffffffffffffffffff163373ffffffffffffffffffffffffffffffffffffffff16146106db576040517f08c379a000000000000000000000000000000000000000000000000000000000815260040180806020018281038252600d8152602001807f4e6f7420746865204f776e65720000000000000000000000000000000000000081525060200191505060405180910390fd5b8173ffffffffffffffffffffffffffffffffffffffff166108fc829081150290604051600060405180830381858888f19350505050158015610721573d6000803e3d6000fd5b505050565b6000600154421061079f576040517f08c379a00000000000000000000000000000000000000000000000000000000081526004018080602001828103825260168152602001807f42696464696e672054696d652068617320456e6465640000000000000000000081525060200191505060405180910390fd5b426001540390509056fea265627a7a723158200f7bdd1c996d5de0c62700b53d5388c77c11ce14a480c06b71f2924a2d6c761b64736f6c63430005100032",
  "source": "pragma solidity ^0.5.16;\n\nimport \"./HelperAuction.sol\";\n\n///@author Rutwik , Yashwanth , Sunil and Manikanta\n///@title Implementation of the Auction(to place,reveal bids and transfer the ether to the seller)\n\ncontract Auction is HelperAuction {\n    ///@notice function to place a bid.\n    ///@param HashValue have the hash value of the bid being placed\n    ///@dev the bid should be placed before the end of the bidding period\n    function PlaceBid(bytes32 HashValue) public {\n        require(now < EndOfBiddingPeriod, \"Bidding Time has Ended\");\n        HashOfBidsPlaced[msg.sender] = HashValue;\n    }\n\n    ///@notice function to reveal the bid.\n    ///@dev reveal the bids in the duration of the revealing period\n    ///@param BidAmount has the value of the amount bidded\n    ///@param Nonce has the nonce value\n\n    function RevealBid(uint BidAmount, uint Nonce) public {\n\n        require(now >= EndOfBiddingPeriod,\"Revealing Time has not Started\");\n        require(now < EndOfRevealingPeriod,\"Revealing Time has Ended\");\n        require(keccak256(abi.encodePacked(BidAmount, Nonce)) == HashOfBidsPlaced[msg.sender], \"Hash Values Don't Match\");\n        require(!IsBidRevealed[msg.sender], \"Bid has Already Been Revealed\");\n        IsBidRevealed[msg.sender] = true;\n    }\n\n    ///@notice function to transfer the ether\n    ///@param receiver has the address of the person that receive the amount paid\n    ///@param amount has the value of ether that is going to be transferred\n    function TransferEther(address payable receiver, uint amount) payable external {\n        require(msg.sender == Seller, \"Not the Owner\");\n        receiver.transfer(amount);\n    }\n}",
  "sourcePath": "/home/rutwik99/Desktop/IIIT-H/SEM-VII/Blockchain/Assgn-1/contracts/Auction.sol",
  "compiler": {
    "name": "solc",
    "version": "0.5.16+commit.9c3226ce.Emscripten.clang"
  },
  "schemaVersion": "3.2.4",
  "updatedAt": "2020-09-25T13:56:41.337Z",
  "devdoc": {
    "author": "Rutwik , Yashwanth , Sunil and Manikanta",
    "methods": {
      "BiddingTimeRemaining()": {
        "return": "time remaining to bid "
      },
      "PlaceBid(bytes32)": {
        "details": "the bid should be placed before the end of the bidding period",
        "params": {
          "HashValue": "have the hash value of the bid being placed"
        }
      },
      "RevealBid(uint256,uint256)": {
        "details": "reveal the bids in the duration of the revealing period",
        "params": {
          "BidAmount": "has the value of the amount bidded",
          "Nonce": "has the nonce value"
        }
      },
      "RevealingTimeRemaining()": {
        "details": "check the time is valid to reveal bids(it's in revealind duration)",
        "return": "time remaining in revealing period"
      },
      "TransferEther(address,uint256)": {
        "params": {
          "amount": "has the value of ether that is going to be transferred",
          "receiver": "has the address of the person that receive the amount paid"
        }
      }
    },
    "title": "Implementation of the Auction(to place,reveal bids and transfer the ether to the seller)"
  },
  "userdoc": {
    "methods": {
      "BiddingTimeRemaining()": {
        "notice": "Function to calculate the time remaining for the bidding"
      },
      "PlaceBid(bytes32)": {
        "notice": "function to place a bid."
      },
      "RevealBid(uint256,uint256)": {
        "notice": "function to reveal the bid."
      },
      "RevealingTimeRemaining()": {
        "notice": "Function to calculate the time remaining before revealing the bids"
      },
      "TransferEther(address,uint256)": {
        "notice": "function to transfer the ether"
      }
    }
  }
}