{
  "contractName": "BarbossaBrethren",
  "abi": [
    {
      "inputs": [],
      "payable": false,
      "stateMutability": "nonpayable",
      "type": "constructor"
    },
    {
      "constant": true,
      "inputs": [],
      "name": "BiddingTimeRemaining",
      "outputs": [
        {
          "internalType": "uint256",
          "name": "",
          "type": "uint256"
        }
      ],
      "payable": false,
      "stateMutability": "view",
      "type": "function"
    },
    {
      "constant": false,
      "inputs": [
        {
          "internalType": "bytes32",
          "name": "HashValue",
          "type": "bytes32"
        }
      ],
      "name": "PlaceBid",
      "outputs": [],
      "payable": false,
      "stateMutability": "nonpayable",
      "type": "function"
    },
    {
      "constant": false,
      "inputs": [
        {
          "internalType": "uint256",
          "name": "BidAmount",
          "type": "uint256"
        },
        {
          "internalType": "uint256",
          "name": "Nonce",
          "type": "uint256"
        }
      ],
      "name": "RevealBid",
      "outputs": [],
      "payable": false,
      "stateMutability": "nonpayable",
      "type": "function"
    },
    {
      "constant": true,
      "inputs": [],
      "name": "RevealingTimeRemaining",
      "outputs": [
        {
          "internalType": "uint256",
          "name": "",
          "type": "uint256"
        }
      ],
      "payable": false,
      "stateMutability": "view",
      "type": "function"
    },
    {
      "constant": false,
      "inputs": [
        {
          "internalType": "address payable",
          "name": "receiver",
          "type": "address"
        },
        {
          "internalType": "uint256",
          "name": "amount",
          "type": "uint256"
        }
      ],
      "name": "TransferEther",
      "outputs": [],
      "payable": true,
      "stateMutability": "payable",
      "type": "function"
    },
    {
      "constant": false,
      "inputs": [
        {
          "internalType": "address",
          "name": "TempAddress",
          "type": "address"
        }
      ],
      "name": "ConnectWithVickeryAuction",
      "outputs": [],
      "payable": false,
      "stateMutability": "nonpayable",
      "type": "function"
    },
    {
      "constant": false,
      "inputs": [
        {
          "internalType": "bytes32",
          "name": "HashValue",
          "type": "bytes32"
        }
      ],
      "name": "PlaceBidInBarbossaBrethren",
      "outputs": [],
      "payable": false,
      "stateMutability": "nonpayable",
      "type": "function"
    },
    {
      "constant": false,
      "inputs": [
        {
          "internalType": "uint256",
          "name": "BidAmount",
          "type": "uint256"
        },
        {
          "internalType": "uint256",
          "name": "Nonce",
          "type": "uint256"
        }
      ],
      "name": "RevealBidInBarbossaBrethren",
      "outputs": [],
      "payable": false,
      "stateMutability": "nonpayable",
      "type": "function"
    },
    {
      "constant": false,
      "inputs": [],
      "name": "SendTheWinningBidToVickreyAuction",
      "outputs": [],
      "payable": false,
      "stateMutability": "nonpayable",
      "type": "function"
    },
    {
      "constant": false,
      "inputs": [],
      "name": "RevealTheWinningBidToVickreyAuction",
      "outputs": [],
      "payable": false,
      "stateMutability": "nonpayable",
      "type": "function"
    }
  ],
  "bytecode": "0x608060405234801561001057600080fd5b50336000806101000a81548173ffffffffffffffffffffffffffffffffffffffff021916908373ffffffffffffffffffffffffffffffffffffffff160217905550610ef8806100606000396000f3fe6080604052600436106100915760003560e01c80639a86b1b0116100595780639a86b1b01461019d578063a4ff273c146101d8578063b3b1161e146101ef578063c2b44dc11461023d578063ccf2eab11461026857610091565b806313744e3c1461009657806328c7050f146100c157806350c522dc146100d857806374ccdbe014610113578063842ae4d414610158575b600080fd5b3480156100a257600080fd5b506100ab6102b9565b6040518082815260200191505060405180910390f35b3480156100cd57600080fd5b506100d66103b4565b005b3480156100e457600080fd5b50610111600480360360208110156100fb57600080fd5b8101908080359060200190929190505050610510565b005b34801561011f57600080fd5b506101566004803603604081101561013657600080fd5b8101908080359060200190929190803590602001909291905050506105ce565b005b34801561016457600080fd5b5061019b6004803603604081101561017b57600080fd5b8101908080359060200190929190803590602001909291905050506108bb565b005b3480156101a957600080fd5b506101d6600480360360208110156101c057600080fd5b810190808035906020019092919050505061091c565b005b3480156101e457600080fd5b506101ed6109eb565b005b61023b6004803603604081101561020557600080fd5b81019080803573ffffffffffffffffffffffffffffffffffffffff16906020019092919080359060200190929190505050610b73565b005b34801561024957600080fd5b50610252610c80565b6040518082815260200191505060405180910390f35b34801561027457600080fd5b506102b76004803603602081101561028b57600080fd5b81019080803573ffffffffffffffffffffffffffffffffffffffff169060200190929190505050610d03565b005b6000600154421015610333576040517f08c379a000000000000000000000000000000000000000000000000000000000815260040180806020018281038252601e8152602001807f52657665616c696e672054696d6520686173206e6f742053746172746564000081525060200191505060405180910390fd5b60025442106103aa576040517f08c379a00000000000000000000000000000000000000000000000000000000081526004018080602001828103825260188152602001807f52657665616c696e672054696d652068617320456e646564000000000000000081525060200191505060405180910390fd5b4260025403905090565b6000809054906101000a900473ffffffffffffffffffffffffffffffffffffffff1673ffffffffffffffffffffffffffffffffffffffff163373ffffffffffffffffffffffffffffffffffffffff1614610476576040517f08c379a000000000000000000000000000000000000000000000000000000000815260040180806020018281038252600d8152602001807f4e6f7420746865204f776e65720000000000000000000000000000000000000081525060200191505060405180910390fd5b600b60009054906101000a900473ffffffffffffffffffffffffffffffffffffffff1673ffffffffffffffffffffffffffffffffffffffff166374ccdbe0600554600a6040518363ffffffff1660e01b81526004018083815260200182815260200192505050600060405180830381600087803b1580156104f657600080fd5b505af115801561050a573d6000803e3d6000fd5b50505050565b6001544210610587576040517f08c379a00000000000000000000000000000000000000000000000000000000081526004018080602001828103825260168152602001807f42696464696e672054696d652068617320456e6465640000000000000000000081525060200191505060405180910390fd5b80600960003373ffffffffffffffffffffffffffffffffffffffff1673ffffffffffffffffffffffffffffffffffffffff1681526020019081526020016000208190555050565b600154421015610646576040517f08c379a000000000000000000000000000000000000000000000000000000000815260040180806020018281038252601e8152602001807f52657665616c696e672054696d6520686173206e6f742053746172746564000081525060200191505060405180910390fd5b60025442106106bd576040517f08c379a00000000000000000000000000000000000000000000000000000000081526004018080602001828103825260188152602001807f52657665616c696e672054696d652068617320456e646564000000000000000081525060200191505060405180910390fd5b600960003373ffffffffffffffffffffffffffffffffffffffff1673ffffffffffffffffffffffffffffffffffffffff1681526020019081526020016000205482826040516020018083815260200182815260200192505050604051602081830303815290604052805190602001201461079f576040517f08c379a00000000000000000000000000000000000000000000000000000000081526004018080602001828103825260178152602001807f486173682056616c75657320446f6e2774204d6174636800000000000000000081525060200191505060405180910390fd5b600860003373ffffffffffffffffffffffffffffffffffffffff1673ffffffffffffffffffffffffffffffffffffffff16815260200190815260200160002060009054906101000a900460ff161561085f576040517f08c379a000000000000000000000000000000000000000000000000000000000815260040180806020018281038252601d8152602001807f4269642068617320416c7265616479204265656e2052657665616c656400000081525060200191505060405180910390fd5b6001600860003373ffffffffffffffffffffffffffffffffffffffff1673ffffffffffffffffffffffffffffffffffffffff16815260200190815260200160002060006101000a81548160ff0219169083151502179055505050565b6108c582826105ce565b600554821115610918578160058190555033600360006101000a81548173ffffffffffffffffffffffffffffffffffffffff021916908373ffffffffffffffffffffffffffffffffffffffff1602179055505b5050565b6000809054906101000a900473ffffffffffffffffffffffffffffffffffffffff1673ffffffffffffffffffffffffffffffffffffffff163373ffffffffffffffffffffffffffffffffffffffff1614156109df576040517f08c379a00000000000000000000000000000000000000000000000000000000081526004018080602001828103825260118152602001807f53656c6c65722043616e6e6f742042696400000000000000000000000000000081525060200191505060405180910390fd5b6109e881610510565b50565b6000809054906101000a900473ffffffffffffffffffffffffffffffffffffffff1673ffffffffffffffffffffffffffffffffffffffff163373ffffffffffffffffffffffffffffffffffffffff1614610aad576040517f08c379a000000000000000000000000000000000000000000000000000000000815260040180806020018281038252600d8152602001807f4e6f7420746865204f776e65720000000000000000000000000000000000000081525060200191505060405180910390fd5b6000600a9050600b60009054906101000a900473ffffffffffffffffffffffffffffffffffffffff1673ffffffffffffffffffffffffffffffffffffffff166350c522dc600554836040516020018083815260200182815260200192505050604051602081830303815290604052805190602001206040518263ffffffff1660e01b815260040180828152602001915050600060405180830381600087803b158015610b5857600080fd5b505af1158015610b6c573d6000803e3d6000fd5b5050505050565b6000809054906101000a900473ffffffffffffffffffffffffffffffffffffffff1673ffffffffffffffffffffffffffffffffffffffff163373ffffffffffffffffffffffffffffffffffffffff1614610c35576040517f08c379a000000000000000000000000000000000000000000000000000000000815260040180806020018281038252600d8152602001807f4e6f7420746865204f776e65720000000000000000000000000000000000000081525060200191505060405180910390fd5b8173ffffffffffffffffffffffffffffffffffffffff166108fc829081150290604051600060405180830381858888f19350505050158015610c7b573d6000803e3d6000fd5b505050565b60006001544210610cf9576040517f08c379a00000000000000000000000000000000000000000000000000000000081526004018080602001828103825260168152602001807f42696464696e672054696d652068617320456e6465640000000000000000000081525060200191505060405180910390fd5b4260015403905090565b6000809054906101000a900473ffffffffffffffffffffffffffffffffffffffff1673ffffffffffffffffffffffffffffffffffffffff163373ffffffffffffffffffffffffffffffffffffffff1614610dc5576040517f08c379a000000000000000000000000000000000000000000000000000000000815260040180806020018281038252600d8152602001807f4e6f7420746865204f776e65720000000000000000000000000000000000000081525060200191505060405180910390fd5b80600b60006101000a81548173ffffffffffffffffffffffffffffffffffffffff021916908373ffffffffffffffffffffffffffffffffffffffff1602179055506005600b60009054906101000a900473ffffffffffffffffffffffffffffffffffffffff1673ffffffffffffffffffffffffffffffffffffffff1663c2b44dc16040518163ffffffff1660e01b815260040160206040518083038186803b158015610e7057600080fd5b505afa158015610e84573d6000803e3d6000fd5b505050506040513d6020811015610e9a57600080fd5b81019080805190602001909291905050504201036001819055506003600154016002819055505056fea265627a7a72315820e625b3b2fcb364126dc7c53b2880b8cce509271332c59e7b82db6b89b21151bc64736f6c63430005100032",
  "source": "pragma solidity ^0.5.16;\n\nimport \"./HelperAuction.sol\";\nimport \"./Auction.sol\";\nimport \"./VickreyAuction.sol\";\n\n///@author Rutwik , Yashwanth , Sunil and Manikanta\n///@title Implementation of the Auction among the Barbossa brethren\ncontract BarbossaBrethren is Auction{\n\n    VickreyAuction VA_instance;\n\n    constructor() public {\n        Seller = msg.sender;\n    }\n    ///@notice function to connect with the vickrey auction\n    ///@param TempAddress has the address of the vickery auction\n\n    function ConnectWithVickeryAuction(address TempAddress) public {\n        require(msg.sender == Seller, \"Not the Owner\");\n        VA_instance = VickreyAuction(TempAddress);\n        EndOfBiddingPeriod = now + VA_instance.BiddingTimeRemaining() - 5;\n        EndOfRevealingPeriod = EndOfBiddingPeriod + 3;\n    }\n    ///@notice this function is to place a bid in barbossa brethren auction\n    ///@param HashValue has the hash of the bid to be place\n    function PlaceBidInBarbossaBrethren(bytes32 HashValue) public {\n        require(msg.sender != Seller, \"Seller Cannot Bid\");\n        Auction.PlaceBid(HashValue);\n    }\n    ///@notice function to reveal the highest bid among the barbossa brethren\n    ///@dev compare the amount bidded to the highest bid till now and manipulate the highest bid accordingly\n    ///@param BidAmount has the value bidded by a party\n    ///@param Nonce has the nonce value stored in it\n    function RevealBidInBarbossaBrethren(uint BidAmount, uint Nonce) public {\n        Auction.RevealBid(BidAmount, Nonce);\n        if (BidAmount > HighestBid) {\n            HighestBid = BidAmount;\n            HighestBidder = msg.sender;\n        }\n    }\n    ///@notice function to send the highest bid to vickery auction\n    \n    function SendTheWinningBidToVickreyAuction() public {\n        require(msg.sender == Seller, \"Not the Owner\");\n        uint TempNonce = 10;\n        VA_instance.PlaceBid(keccak256(abi.encodePacked(HighestBid, TempNonce)));\n    }\n    ///@notice function to reveal the highest bid here in vickery auction\n    function RevealTheWinningBidToVickreyAuction() public {\n        require(msg.sender == Seller, \"Not the Owner\");\n        VA_instance.RevealBid(HighestBid, 10);\n    }\n}",
  "sourcePath": "/home/rutwik99/Desktop/IIIT-H/SEM-VII/Blockchain/Assgn-1/contracts/BarbossaBrethren.sol",
  "compiler": {
    "name": "solc",
    "version": "0.5.16+commit.9c3226ce.Emscripten.clang"
  },
  "schemaVersion": "3.2.4",
  "updatedAt": "2020-09-25T13:56:41.339Z",
  "devdoc": {
    "author": "Rutwik , Yashwanth , Sunil and Manikanta",
    "methods": {
      "BiddingTimeRemaining()": {
        "return": "time remaining to bid "
      },
      "ConnectWithVickeryAuction(address)": {
        "params": {
          "TempAddress": "has the address of the vickery auction"
        }
      },
      "PlaceBid(bytes32)": {
        "details": "the bid should be placed before the end of the bidding period",
        "params": {
          "HashValue": "have the hash value of the bid being placed"
        }
      },
      "PlaceBidInBarbossaBrethren(bytes32)": {
        "params": {
          "HashValue": "has the hash of the bid to be place"
        }
      },
      "RevealBid(uint256,uint256)": {
        "details": "reveal the bids in the duration of the revealing period",
        "params": {
          "BidAmount": "has the value of the amount bidded",
          "Nonce": "has the nonce value"
        }
      },
      "RevealBidInBarbossaBrethren(uint256,uint256)": {
        "details": "compare the amount bidded to the highest bid till now and manipulate the highest bid accordingly",
        "params": {
          "BidAmount": "has the value bidded by a party",
          "Nonce": "has the nonce value stored in it"
        }
      },
      "RevealingTimeRemaining()": {
        "details": "check the time is valid to reveal bids(it's in revealind duration)",
        "return": "time remaining in revealing period"
      },
      "TransferEther(address,uint256)": {
        "params": {
          "amount": "has the value of ether that is going to be transferred",
          "receiver": "has the address of the person that receive the amount paid"
        }
      }
    },
    "title": "Implementation of the Auction among the Barbossa brethren"
  },
  "userdoc": {
    "methods": {
      "BiddingTimeRemaining()": {
        "notice": "Function to calculate the time remaining for the bidding"
      },
      "ConnectWithVickeryAuction(address)": {
        "notice": "function to connect with the vickrey auction"
      },
      "PlaceBid(bytes32)": {
        "notice": "function to place a bid."
      },
      "PlaceBidInBarbossaBrethren(bytes32)": {
        "notice": "this function is to place a bid in barbossa brethren auction"
      },
      "RevealBid(uint256,uint256)": {
        "notice": "function to reveal the bid."
      },
      "RevealBidInBarbossaBrethren(uint256,uint256)": {
        "notice": "function to reveal the highest bid among the barbossa brethren"
      },
      "RevealTheWinningBidToVickreyAuction()": {
        "notice": "function to reveal the highest bid here in vickery auction"
      },
      "RevealingTimeRemaining()": {
        "notice": "Function to calculate the time remaining before revealing the bids"
      },
      "SendTheWinningBidToVickreyAuction()": {
        "notice": "function to send the highest bid to vickery auction"
      },
      "TransferEther(address,uint256)": {
        "notice": "function to transfer the ether"
      }
    }
  }
}