{
  "contractName": "HelperAuction",
  "abi": [
    {
      "constant": true,
      "inputs": [],
      "name": "BiddingTimeRemaining",
      "outputs": [
        {
          "internalType": "uint256",
          "name": "",
          "type": "uint256"
        }
      ],
      "payable": false,
      "stateMutability": "view",
      "type": "function"
    },
    {
      "constant": true,
      "inputs": [],
      "name": "RevealingTimeRemaining",
      "outputs": [
        {
          "internalType": "uint256",
          "name": "",
          "type": "uint256"
        }
      ],
      "payable": false,
      "stateMutability": "view",
      "type": "function"
    }
  ],
  "bytecode": "0x608060405234801561001057600080fd5b5061022a806100206000396000f3fe608060405234801561001057600080fd5b50600436106100365760003560e01c806313744e3c1461003b578063c2b44dc114610059575b600080fd5b610043610077565b6040518082815260200191505060405180910390f35b610061610172565b6040518082815260200191505060405180910390f35b60006001544210156100f1576040517f08c379a000000000000000000000000000000000000000000000000000000000815260040180806020018281038252601e8152602001807f52657665616c696e672054696d6520686173206e6f742053746172746564000081525060200191505060405180910390fd5b6002544210610168576040517f08c379a00000000000000000000000000000000000000000000000000000000081526004018080602001828103825260188152602001807f52657665616c696e672054696d652068617320456e646564000000000000000081525060200191505060405180910390fd5b4260025403905090565b600060015442106101eb576040517f08c379a00000000000000000000000000000000000000000000000000000000081526004018080602001828103825260168152602001807f42696464696e672054696d652068617320456e6465640000000000000000000081525060200191505060405180910390fd5b426001540390509056fea265627a7a723158206e13d5bc761cfd6c82d183cf9c638a1ec9c2a6b478c6df658072d896a3a82a4464736f6c63430005100032",
  "source": "pragma solidity ^0.5.16;\n\n///@author Rutwik , Yashwanth , Sunil and Manikanta\n///@title Implementation of contract that manages privacy and time remaining in the auctions\ncontract HelperAuction{\n\n    address payable Seller;\n\n    uint EndOfBiddingPeriod;\n    uint EndOfRevealingPeriod;\n\n    address internal HighestBidder;\n    address internal HighestBidderBarbossa;\n    uint internal HighestBid;\n    uint internal HighestBidBarbossa;\n    uint internal SecondHighestBid;\n\n    ///@notice Mapping to check if the bid is revealed\n    mapping(address => bool) internal IsBidRevealed;\n\n    ///@notice Mapping To Store The Hash Value Of The Bids Placed\n    mapping(address => bytes32) internal HashOfBidsPlaced;\n    \n    mapping(address => uint) internal BalanceOfBidders;\n\n    ///@notice Function to calculate the time remaining for the bidding\n    ///@return time remaining to bid \n    function BiddingTimeRemaining() public view returns(uint) {\n        require(now < EndOfBiddingPeriod, \"Bidding Time has Ended\");\n        return EndOfBiddingPeriod - now;\n    }\n    ///@notice Function to calculate the time remaining before revealing the bids\n    ///@dev check the time is valid to reveal bids(it's in revealind duration)\n    ///@return time remaining in revealing period\n    function RevealingTimeRemaining() public view returns(uint) {\n        require(now >= EndOfBiddingPeriod,\"Revealing Time has not Started\");\n        require(now < EndOfRevealingPeriod,\"Revealing Time has Ended\");\n        return EndOfRevealingPeriod - now;\n    }\n}",
  "sourcePath": "/home/rutwik99/Desktop/IIIT-H/SEM-VII/Blockchain/Assgn-1/contracts/HelperAuction.sol",
  "compiler": {
    "name": "solc",
    "version": "0.5.16+commit.9c3226ce.Emscripten.clang"
  },
  "schemaVersion": "3.2.4",
  "updatedAt": "2020-09-25T13:56:41.924Z",
  "devdoc": {
    "author": "Rutwik , Yashwanth , Sunil and Manikanta",
    "methods": {
      "BiddingTimeRemaining()": {
        "return": "time remaining to bid "
      },
      "RevealingTimeRemaining()": {
        "details": "check the time is valid to reveal bids(it's in revealind duration)",
        "return": "time remaining in revealing period"
      }
    },
    "title": "Implementation of contract that manages privacy and time remaining in the auctions"
  },
  "userdoc": {
    "methods": {
      "BiddingTimeRemaining()": {
        "notice": "Function to calculate the time remaining for the bidding"
      },
      "RevealingTimeRemaining()": {
        "notice": "Function to calculate the time remaining before revealing the bids"
      }
    }
  }
}