{
  "contractName": "VickreyAuction",
  "abi": [
    {
      "inputs": [],
      "payable": false,
      "stateMutability": "nonpayable",
      "type": "constructor"
    },
    {
      "constant": true,
      "inputs": [],
      "name": "BiddingTimeRemaining",
      "outputs": [
        {
          "internalType": "uint256",
          "name": "",
          "type": "uint256"
        }
      ],
      "payable": false,
      "stateMutability": "view",
      "type": "function"
    },
    {
      "constant": false,
      "inputs": [
        {
          "internalType": "bytes32",
          "name": "HashValue",
          "type": "bytes32"
        }
      ],
      "name": "PlaceBid",
      "outputs": [],
      "payable": false,
      "stateMutability": "nonpayable",
      "type": "function"
    },
    {
      "constant": false,
      "inputs": [
        {
          "internalType": "uint256",
          "name": "BidAmount",
          "type": "uint256"
        },
        {
          "internalType": "uint256",
          "name": "Nonce",
          "type": "uint256"
        }
      ],
      "name": "RevealBid",
      "outputs": [],
      "payable": false,
      "stateMutability": "nonpayable",
      "type": "function"
    },
    {
      "constant": true,
      "inputs": [],
      "name": "RevealingTimeRemaining",
      "outputs": [
        {
          "internalType": "uint256",
          "name": "",
          "type": "uint256"
        }
      ],
      "payable": false,
      "stateMutability": "view",
      "type": "function"
    },
    {
      "constant": false,
      "inputs": [
        {
          "internalType": "address payable",
          "name": "receiver",
          "type": "address"
        },
        {
          "internalType": "uint256",
          "name": "amount",
          "type": "uint256"
        }
      ],
      "name": "TransferEther",
      "outputs": [],
      "payable": true,
      "stateMutability": "payable",
      "type": "function"
    },
    {
      "constant": false,
      "inputs": [
        {
          "internalType": "bytes32",
          "name": "HashValue",
          "type": "bytes32"
        }
      ],
      "name": "PlaceBidInVickreyAuction",
      "outputs": [],
      "payable": false,
      "stateMutability": "nonpayable",
      "type": "function"
    },
    {
      "constant": false,
      "inputs": [
        {
          "internalType": "uint256",
          "name": "BidAmount",
          "type": "uint256"
        },
        {
          "internalType": "uint256",
          "name": "Nonce",
          "type": "uint256"
        }
      ],
      "name": "RevealBidInVickreyAuction",
      "outputs": [],
      "payable": false,
      "stateMutability": "nonpayable",
      "type": "function"
    },
    {
      "constant": true,
      "inputs": [],
      "name": "BuyerOfTheItem",
      "outputs": [
        {
          "internalType": "address",
          "name": "",
          "type": "address"
        },
        {
          "internalType": "uint256",
          "name": "",
          "type": "uint256"
        }
      ],
      "payable": false,
      "stateMutability": "view",
      "type": "function"
    }
  ],
  "bytecode": "0x608060405234801561001057600080fd5b50336000806101000a81548173ffffffffffffffffffffffffffffffffffffffff021916908373ffffffffffffffffffffffffffffffffffffffff160217905550600b42016001819055506004600154016002819055506001600860008060009054906101000a900473ffffffffffffffffffffffffffffffffffffffff1673ffffffffffffffffffffffffffffffffffffffff1673ffffffffffffffffffffffffffffffffffffffff16815260200190815260200160002060006101000a81548160ff02191690831515021790555060006005819055506000600781905550610a6e806100ff6000396000f3fe60806040526004361061007b5760003560e01c806374ccdbe01161004e57806374ccdbe01461017f578063b3b1161e146101c4578063bce6ca3d14610212578063c2b44dc1146102575761007b565b806313744e3c146100805780633ddd66df146100ab5780634d9d52c61461010957806350c522dc14610144575b600080fd5b34801561008c57600080fd5b50610095610282565b6040518082815260200191505060405180910390f35b3480156100b757600080fd5b506100c061037d565b604051808373ffffffffffffffffffffffffffffffffffffffff1673ffffffffffffffffffffffffffffffffffffffff1681526020018281526020019250505060405180910390f35b34801561011557600080fd5b506101426004803603602081101561012c57600080fd5b81019080803590602001909291905050506103ae565b005b34801561015057600080fd5b5061017d6004803603602081101561016757600080fd5b810190808035906020019092919050505061047d565b005b34801561018b57600080fd5b506101c2600480360360408110156101a257600080fd5b81019080803590602001909291908035906020019092919050505061053b565b005b610210600480360360408110156101da57600080fd5b81019080803573ffffffffffffffffffffffffffffffffffffffff16906020019092919080359060200190929190505050610828565b005b34801561021e57600080fd5b506102556004803603604081101561023557600080fd5b810190808035906020019092919080359060200190929190505050610935565b005b34801561026357600080fd5b5061026c6109b6565b6040518082815260200191505060405180910390f35b60006001544210156102fc576040517f08c379a000000000000000000000000000000000000000000000000000000000815260040180806020018281038252601e8152602001807f52657665616c696e672054696d6520686173206e6f742053746172746564000081525060200191505060405180910390fd5b6002544210610373576040517f08c379a00000000000000000000000000000000000000000000000000000000081526004018080602001828103825260188152602001807f52657665616c696e672054696d652068617320456e646564000000000000000081525060200191505060405180910390fd5b4260025403905090565b600080600360009054906101000a900473ffffffffffffffffffffffffffffffffffffffff16600754915091509091565b6000809054906101000a900473ffffffffffffffffffffffffffffffffffffffff1673ffffffffffffffffffffffffffffffffffffffff163373ffffffffffffffffffffffffffffffffffffffff161415610471576040517f08c379a00000000000000000000000000000000000000000000000000000000081526004018080602001828103825260118152602001807f53656c6c65722043616e6e6f742042696400000000000000000000000000000081525060200191505060405180910390fd5b61047a8161047d565b50565b60015442106104f4576040517f08c379a00000000000000000000000000000000000000000000000000000000081526004018080602001828103825260168152602001807f42696464696e672054696d652068617320456e6465640000000000000000000081525060200191505060405180910390fd5b80600960003373ffffffffffffffffffffffffffffffffffffffff1673ffffffffffffffffffffffffffffffffffffffff1681526020019081526020016000208190555050565b6001544210156105b3576040517f08c379a000000000000000000000000000000000000000000000000000000000815260040180806020018281038252601e8152602001807f52657665616c696e672054696d6520686173206e6f742053746172746564000081525060200191505060405180910390fd5b600254421061062a576040517f08c379a00000000000000000000000000000000000000000000000000000000081526004018080602001828103825260188152602001807f52657665616c696e672054696d652068617320456e646564000000000000000081525060200191505060405180910390fd5b600960003373ffffffffffffffffffffffffffffffffffffffff1673ffffffffffffffffffffffffffffffffffffffff1681526020019081526020016000205482826040516020018083815260200182815260200192505050604051602081830303815290604052805190602001201461070c576040517f08c379a00000000000000000000000000000000000000000000000000000000081526004018080602001828103825260178152602001807f486173682056616c75657320446f6e2774204d6174636800000000000000000081525060200191505060405180910390fd5b600860003373ffffffffffffffffffffffffffffffffffffffff1673ffffffffffffffffffffffffffffffffffffffff16815260200190815260200160002060009054906101000a900460ff16156107cc576040517f08c379a000000000000000000000000000000000000000000000000000000000815260040180806020018281038252601d8152602001807f4269642068617320416c7265616479204265656e2052657665616c656400000081525060200191505060405180910390fd5b6001600860003373ffffffffffffffffffffffffffffffffffffffff1673ffffffffffffffffffffffffffffffffffffffff16815260200190815260200160002060006101000a81548160ff0219169083151502179055505050565b6000809054906101000a900473ffffffffffffffffffffffffffffffffffffffff1673ffffffffffffffffffffffffffffffffffffffff163373ffffffffffffffffffffffffffffffffffffffff16146108ea576040517f08c379a000000000000000000000000000000000000000000000000000000000815260040180806020018281038252600d8152602001807f4e6f7420746865204f776e65720000000000000000000000000000000000000081525060200191505060405180910390fd5b8173ffffffffffffffffffffffffffffffffffffffff166108fc829081150290604051600060405180830381858888f19350505050158015610930573d6000803e3d6000fd5b505050565b61093f828261053b565b60055482111561099f576005546007819055508160058190555033600360006101000a81548173ffffffffffffffffffffffffffffffffffffffff021916908373ffffffffffffffffffffffffffffffffffffffff1602179055506109b2565b6007548211156109b157816007819055505b5b5050565b60006001544210610a2f576040517f08c379a00000000000000000000000000000000000000000000000000000000081526004018080602001828103825260168152602001807f42696464696e672054696d652068617320456e6465640000000000000000000081525060200191505060405180910390fd5b426001540390509056fea265627a7a72315820c0f9cff3bbcca527923571286f66f0da2ab9a237dd90b5ce65908abc8967db1e64736f6c63430005100032",
  "source": "pragma solidity ^0.5.16;\n\nimport \"./HelperAuction.sol\";\nimport \"./Auction.sol\";\nimport \"./BarbossaBrethren.sol\";\n\n///@author Rutwik , Yashwanth , Sunil and Manikanta\n///@title Implementation of the Vickrey Auction\n\ncontract VickreyAuction is Auction {\n\n    constructor () public {\n        Seller = msg.sender;\n        EndOfBiddingPeriod = now + 11;\n        EndOfRevealingPeriod = EndOfBiddingPeriod + 4;\n        IsBidRevealed[Seller] = true;\n        HighestBid = 0;\n        SecondHighestBid = 0;\n    }\n    ///@notice function to place a bid in the vickrey auction\n    ///@param HashValue has the hash value of the bid placed\n    function PlaceBidInVickreyAuction(bytes32 HashValue) public {\n        require(msg.sender != Seller, \"Seller Cannot Bid\");\n        Auction.PlaceBid(HashValue);\n    }\n    ///@notice function to reveal bid after the end of bidding time \n    ///@param BidAmount has the amount bidded\n    ///@param Nonce has the nonce value stored\n    ///@dev compare bid to the previous and highest and second highest and change them accordingly\n    function RevealBidInVickreyAuction(uint BidAmount, uint Nonce) public {\n        Auction.RevealBid(BidAmount, Nonce);\n        if(BidAmount > HighestBid) {\n            SecondHighestBid = HighestBid;\n            HighestBid = BidAmount;\n            HighestBidder = msg.sender;\n        }\n        else if (BidAmount > SecondHighestBid){\n            SecondHighestBid = BidAmount;\n        }\n    }\n\n    ///@notice function to reveal the winner of the auction\n    ///@return the address of the highest bidder and the value of the second highest bid\n\n    function BuyerOfTheItem() view public returns (address, uint) {\n        // Auction.TransferEther(HighestBidder, SecondHighestBid);\n        return (HighestBidder, SecondHighestBid);\n    }\n}",
  "sourcePath": "/home/rutwik99/Desktop/IIIT-H/SEM-VII/Blockchain/Assgn-1/contracts/VickreyAuction.sol",
  "compiler": {
    "name": "solc",
    "version": "0.5.16+commit.9c3226ce.Emscripten.clang"
  },
  "schemaVersion": "3.2.4",
  "updatedAt": "2020-09-25T13:56:41.926Z",
  "devdoc": {
    "author": "Rutwik , Yashwanth , Sunil and Manikanta",
    "methods": {
      "BiddingTimeRemaining()": {
        "return": "time remaining to bid "
      },
      "BuyerOfTheItem()": {
        "return": "the address of the highest bidder and the value of the second highest bid"
      },
      "PlaceBid(bytes32)": {
        "details": "the bid should be placed before the end of the bidding period",
        "params": {
          "HashValue": "have the hash value of the bid being placed"
        }
      },
      "PlaceBidInVickreyAuction(bytes32)": {
        "params": {
          "HashValue": "has the hash value of the bid placed"
        }
      },
      "RevealBid(uint256,uint256)": {
        "details": "reveal the bids in the duration of the revealing period",
        "params": {
          "BidAmount": "has the value of the amount bidded",
          "Nonce": "has the nonce value"
        }
      },
      "RevealBidInVickreyAuction(uint256,uint256)": {
        "details": "compare bid to the previous and highest and second highest and change them accordingly",
        "params": {
          "BidAmount": "has the amount bidded",
          "Nonce": "has the nonce value stored"
        }
      },
      "RevealingTimeRemaining()": {
        "details": "check the time is valid to reveal bids(it's in revealind duration)",
        "return": "time remaining in revealing period"
      },
      "TransferEther(address,uint256)": {
        "params": {
          "amount": "has the value of ether that is going to be transferred",
          "receiver": "has the address of the person that receive the amount paid"
        }
      }
    },
    "title": "Implementation of the Vickrey Auction"
  },
  "userdoc": {
    "methods": {
      "BiddingTimeRemaining()": {
        "notice": "Function to calculate the time remaining for the bidding"
      },
      "BuyerOfTheItem()": {
        "notice": "function to reveal the winner of the auction"
      },
      "PlaceBid(bytes32)": {
        "notice": "function to place a bid."
      },
      "PlaceBidInVickreyAuction(bytes32)": {
        "notice": "function to place a bid in the vickrey auction"
      },
      "RevealBid(uint256,uint256)": {
        "notice": "function to reveal the bid."
      },
      "RevealBidInVickreyAuction(uint256,uint256)": {
        "notice": "function to reveal bid after the end of bidding time "
      },
      "RevealingTimeRemaining()": {
        "notice": "Function to calculate the time remaining before revealing the bids"
      },
      "TransferEther(address,uint256)": {
        "notice": "function to transfer the ether"
      }
    }
  }
}